{
  "contractName": "MemePedia",
  "abi": [
    {
      "inputs": [],
      "stateMutability": "nonpayable",
      "type": "constructor"
    },
    {
      "anonymous": false,
      "inputs": [
        {
          "indexed": true,
          "internalType": "address",
          "name": "owner",
          "type": "address"
        },
        {
          "indexed": true,
          "internalType": "address",
          "name": "approved",
          "type": "address"
        },
        {
          "indexed": true,
          "internalType": "uint256",
          "name": "tokenId",
          "type": "uint256"
        }
      ],
      "name": "Approval",
      "type": "event"
    },
    {
      "anonymous": false,
      "inputs": [
        {
          "indexed": true,
          "internalType": "address",
          "name": "owner",
          "type": "address"
        },
        {
          "indexed": true,
          "internalType": "address",
          "name": "operator",
          "type": "address"
        },
        {
          "indexed": false,
          "internalType": "bool",
          "name": "approved",
          "type": "bool"
        }
      ],
      "name": "ApprovalForAll",
      "type": "event"
    },
    {
      "anonymous": false,
      "inputs": [
        {
          "indexed": true,
          "internalType": "address",
          "name": "from",
          "type": "address"
        },
        {
          "indexed": true,
          "internalType": "address",
          "name": "to",
          "type": "address"
        },
        {
          "indexed": true,
          "internalType": "uint256",
          "name": "tokenId",
          "type": "uint256"
        }
      ],
      "name": "Transfer",
      "type": "event"
    },
    {
      "inputs": [],
      "name": "_tokenIds",
      "outputs": [
        {
          "internalType": "uint256",
          "name": "_value",
          "type": "uint256"
        }
      ],
      "stateMutability": "view",
      "type": "function",
      "constant": true
    },
    {
      "inputs": [
        {
          "internalType": "address",
          "name": "to",
          "type": "address"
        },
        {
          "internalType": "uint256",
          "name": "tokenId",
          "type": "uint256"
        }
      ],
      "name": "approve",
      "outputs": [],
      "stateMutability": "nonpayable",
      "type": "function"
    },
    {
      "inputs": [
        {
          "internalType": "address",
          "name": "owner",
          "type": "address"
        }
      ],
      "name": "balanceOf",
      "outputs": [
        {
          "internalType": "uint256",
          "name": "",
          "type": "uint256"
        }
      ],
      "stateMutability": "view",
      "type": "function",
      "constant": true
    },
    {
      "inputs": [
        {
          "internalType": "uint256",
          "name": "tokenId",
          "type": "uint256"
        }
      ],
      "name": "getApproved",
      "outputs": [
        {
          "internalType": "address",
          "name": "",
          "type": "address"
        }
      ],
      "stateMutability": "view",
      "type": "function",
      "constant": true
    },
    {
      "inputs": [
        {
          "internalType": "address",
          "name": "owner",
          "type": "address"
        },
        {
          "internalType": "address",
          "name": "operator",
          "type": "address"
        }
      ],
      "name": "isApprovedForAll",
      "outputs": [
        {
          "internalType": "bool",
          "name": "",
          "type": "bool"
        }
      ],
      "stateMutability": "view",
      "type": "function",
      "constant": true
    },
    {
      "inputs": [],
      "name": "name",
      "outputs": [
        {
          "internalType": "string",
          "name": "",
          "type": "string"
        }
      ],
      "stateMutability": "view",
      "type": "function",
      "constant": true
    },
    {
      "inputs": [
        {
          "internalType": "uint256",
          "name": "tokenId",
          "type": "uint256"
        }
      ],
      "name": "ownerOf",
      "outputs": [
        {
          "internalType": "address",
          "name": "",
          "type": "address"
        }
      ],
      "stateMutability": "view",
      "type": "function",
      "constant": true
    },
    {
      "inputs": [
        {
          "internalType": "address",
          "name": "from",
          "type": "address"
        },
        {
          "internalType": "address",
          "name": "to",
          "type": "address"
        },
        {
          "internalType": "uint256",
          "name": "tokenId",
          "type": "uint256"
        }
      ],
      "name": "safeTransferFrom",
      "outputs": [],
      "stateMutability": "nonpayable",
      "type": "function"
    },
    {
      "inputs": [
        {
          "internalType": "address",
          "name": "from",
          "type": "address"
        },
        {
          "internalType": "address",
          "name": "to",
          "type": "address"
        },
        {
          "internalType": "uint256",
          "name": "tokenId",
          "type": "uint256"
        },
        {
          "internalType": "bytes",
          "name": "_data",
          "type": "bytes"
        }
      ],
      "name": "safeTransferFrom",
      "outputs": [],
      "stateMutability": "nonpayable",
      "type": "function"
    },
    {
      "inputs": [
        {
          "internalType": "address",
          "name": "operator",
          "type": "address"
        },
        {
          "internalType": "bool",
          "name": "approved",
          "type": "bool"
        }
      ],
      "name": "setApprovalForAll",
      "outputs": [],
      "stateMutability": "nonpayable",
      "type": "function"
    },
    {
      "inputs": [
        {
          "internalType": "bytes4",
          "name": "interfaceId",
          "type": "bytes4"
        }
      ],
      "name": "supportsInterface",
      "outputs": [
        {
          "internalType": "bool",
          "name": "",
          "type": "bool"
        }
      ],
      "stateMutability": "view",
      "type": "function",
      "constant": true
    },
    {
      "inputs": [],
      "name": "symbol",
      "outputs": [
        {
          "internalType": "string",
          "name": "",
          "type": "string"
        }
      ],
      "stateMutability": "view",
      "type": "function",
      "constant": true
    },
    {
      "inputs": [
        {
          "internalType": "uint256",
          "name": "tokenId",
          "type": "uint256"
        }
      ],
      "name": "tokenURI",
      "outputs": [
        {
          "internalType": "string",
          "name": "",
          "type": "string"
        }
      ],
      "stateMutability": "view",
      "type": "function",
      "constant": true
    },
    {
      "inputs": [
        {
          "internalType": "address",
          "name": "from",
          "type": "address"
        },
        {
          "internalType": "address",
          "name": "to",
          "type": "address"
        },
        {
          "internalType": "uint256",
          "name": "tokenId",
          "type": "uint256"
        }
      ],
      "name": "transferFrom",
      "outputs": [],
      "stateMutability": "nonpayable",
      "type": "function"
    },
    {
      "inputs": [
        {
          "internalType": "address",
          "name": "recipient",
          "type": "address"
        },
        {
          "internalType": "string",
          "name": "tokenURI",
          "type": "string"
        }
      ],
      "name": "mintNFT",
      "outputs": [
        {
          "internalType": "uint256",
          "name": "",
          "type": "uint256"
        }
      ],
      "stateMutability": "nonpayable",
      "type": "function"
    }
  ],
  "bytecode": "0x60806040523480156200001157600080fd5b506040805180820182526009808252684d656d65506564696160b81b602080840182815285518087019096529285528401528151919291620000569160009162000075565b5080516200006c90600190602084019062000075565b50505062000158565b82805462000083906200011b565b90600052602060002090601f016020900481019282620000a75760008555620000f2565b82601f10620000c257805160ff1916838001178555620000f2565b82800160010185558215620000f2579182015b82811115620000f2578251825591602001919060010190620000d5565b506200010092915062000104565b5090565b5b8082111562000100576000815560010162000105565b6002810460018216806200013057607f821691505b602082108114156200015257634e487b7160e01b600052602260045260246000fd5b50919050565b6117e780620001686000396000f3fe608060405234801561001057600080fd5b50600436106100f55760003560e01c806370a0823111610097578063b88d4fde11610066578063b88d4fde146101e9578063c87b56dd146101fc578063e985e9c51461020f578063eacabe1414610222576100f5565b806370a08231146101a657806395d89b41146101c6578063a22cb465146101ce578063aa46a400146101e1576100f5565b8063095ea7b3116100d3578063095ea7b31461015857806323b872dd1461016d57806342842e0e146101805780636352211e14610193576100f5565b806301ffc9a7146100fa57806306fdde0314610123578063081812fc14610138575b600080fd5b61010d6101083660046110d4565b610235565b60405161011a91906111d0565b60405180910390f35b61012b61027d565b60405161011a91906111db565b61014b61014636600461110c565b61030f565b60405161011a919061117f565b61016b6101663660046110ab565b61035b565b005b61016b61017b366004610f5e565b6103f3565b61016b61018e366004610f5e565b61042b565b61014b6101a136600461110c565b610446565b6101b96101b4366004610f12565b61047b565b60405161011a9190611674565b61012b6104bf565b61016b6101dc366004611012565b6104ce565b6101b96104e4565b61016b6101f7366004610f99565b6104ea565b61012b61020a36600461110c565b610529565b61010d61021d366004610f2c565b61064a565b6101b961023036600461104c565b610678565b60006001600160e01b031982166380ac58cd60e01b148061026657506001600160e01b03198216635b5e139f60e01b145b806102755750610275826106ad565b90505b919050565b60606000805461028c906116ec565b80601f01602080910402602001604051908101604052809291908181526020018280546102b8906116ec565b80156103055780601f106102da57610100808354040283529160200191610305565b820191906000526020600020905b8154815290600101906020018083116102e857829003601f168201915b5050505050905090565b600061031a826106c6565b61033f5760405162461bcd60e51b815260040161033690611547565b60405180910390fd5b506000908152600460205260409020546001600160a01b031690565b600061036682610446565b9050806001600160a01b0316836001600160a01b0316141561039a5760405162461bcd60e51b8152600401610336906115e2565b806001600160a01b03166103ac6106e3565b6001600160a01b031614806103c857506103c88161021d6106e3565b6103e45760405162461bcd60e51b815260040161033690611383565b6103ee83836106e7565b505050565b6104046103fe6106e3565b82610755565b6104205760405162461bcd60e51b815260040161033690611623565b6103ee8383836107d2565b6103ee838383604051806020016040528060008152506104ea565b6000818152600260205260408120546001600160a01b0316806102755760405162461bcd60e51b81526004016103369061142a565b60006001600160a01b0382166104a35760405162461bcd60e51b8152600401610336906113e0565b506001600160a01b031660009081526003602052604090205490565b60606001805461028c906116ec565b6104e06104d96106e3565b8383610905565b5050565b60075481565b6104fb6104f56106e3565b83610755565b6105175760405162461bcd60e51b815260040161033690611623565b610523848484846109a8565b50505050565b6060610534826106c6565b6105505760405162461bcd60e51b8152600401610336906114f6565b60008281526006602052604081208054610569906116ec565b80601f0160208091040260200160405190810160405280929190818152602001828054610595906116ec565b80156105e25780601f106105b7576101008083540402835291602001916105e2565b820191906000526020600020905b8154815290600101906020018083116105c557829003601f168201915b5050505050905060006105f36109db565b905080516000141561060757509050610278565b815115610639578082604051602001610621929190611150565b60405160208183030381529060405292505050610278565b610642846109ed565b949350505050565b6001600160a01b03918216600090815260056020908152604080832093909416825291909152205460ff1690565b60006106846007610a6f565b60006106906007610a78565b905061069c8482610a7c565b6106a68184610b63565b9392505050565b6001600160e01b031981166301ffc9a760e01b14919050565b6000908152600260205260409020546001600160a01b0316151590565b3390565b600081815260046020526040902080546001600160a01b0319166001600160a01b038416908117909155819061071c82610446565b6001600160a01b03167f8c5be1e5ebec7d5bd14f71427d1e84f3dd0314c0f7b2291e5b200ac8c7c3b92560405160405180910390a45050565b6000610760826106c6565b61077c5760405162461bcd60e51b815260040161033690611337565b600061078783610446565b9050806001600160a01b0316846001600160a01b031614806107c25750836001600160a01b03166107b78461030f565b6001600160a01b0316145b806106425750610642818561064a565b826001600160a01b03166107e582610446565b6001600160a01b03161461080b5760405162461bcd60e51b815260040161033690611240565b6001600160a01b0382166108315760405162461bcd60e51b8152600401610336906112bc565b61083c8383836103ee565b6108476000826106e7565b6001600160a01b03831660009081526003602052604081208054600192906108709084906116a9565b90915550506001600160a01b038216600090815260036020526040812080546001929061089e90849061167d565b909155505060008181526002602052604080822080546001600160a01b0319166001600160a01b0386811691821790925591518493918716917fddf252ad1be2c89b69c2b068fc378daa952ba7f163c4a11628f55a4df523b3ef91a46103ee8383836103ee565b816001600160a01b0316836001600160a01b031614156109375760405162461bcd60e51b815260040161033690611300565b6001600160a01b0383811660008181526005602090815260408083209487168084529490915290819020805460ff1916851515179055517f17307eab39ab6107e8899845ad3d59bd9653f200f220920489ca2b5937696c319061099b9085906111d0565b60405180910390a3505050565b6109b38484846107d2565b6109bf84848484610ba7565b6105235760405162461bcd60e51b8152600401610336906111ee565b60408051602081019091526000815290565b60606109f8826106c6565b610a145760405162461bcd60e51b815260040161033690611593565b6000610a1e6109db565b90506000815111610a3e57604051806020016040528060008152506106a6565b80610a4884610cc2565b604051602001610a59929190611150565b6040516020818303038152906040529392505050565b80546001019055565b5490565b6001600160a01b038216610aa25760405162461bcd60e51b8152600401610336906114c1565b610aab816106c6565b15610ac85760405162461bcd60e51b815260040161033690611285565b610ad4600083836103ee565b6001600160a01b0382166000908152600360205260408120805460019290610afd90849061167d565b909155505060008181526002602052604080822080546001600160a01b0319166001600160a01b03861690811790915590518392907fddf252ad1be2c89b69c2b068fc378daa952ba7f163c4a11628f55a4df523b3ef908290a46104e0600083836103ee565b610b6c826106c6565b610b885760405162461bcd60e51b815260040161033690611473565b600082815260066020908152604090912082516103ee92840190610dec565b6000610bbb846001600160a01b0316610ddd565b15610cb757836001600160a01b031663150b7a02610bd76106e3565b8786866040518563ffffffff1660e01b8152600401610bf99493929190611193565b602060405180830381600087803b158015610c1357600080fd5b505af1925050508015610c43575060408051601f3d908101601f19168201909252610c40918101906110f0565b60015b610c9d573d808015610c71576040519150601f19603f3d011682016040523d82523d6000602084013e610c76565b606091505b508051610c955760405162461bcd60e51b8152600401610336906111ee565b805181602001fd5b6001600160e01b031916630a85bd0160e11b149050610642565b506001949350505050565b606081610ce757506040805180820190915260018152600360fc1b6020820152610278565b8160005b8115610d115780610cfb81611727565b9150610d0a9050600a83611695565b9150610ceb565b60008167ffffffffffffffff811115610d3a57634e487b7160e01b600052604160045260246000fd5b6040519080825280601f01601f191660200182016040528015610d64576020820181803683370190505b5090505b841561064257610d796001836116a9565b9150610d86600a86611742565b610d9190603061167d565b60f81b818381518110610db457634e487b7160e01b600052603260045260246000fd5b60200101906001600160f81b031916908160001a905350610dd6600a86611695565b9450610d68565b6001600160a01b03163b151590565b828054610df8906116ec565b90600052602060002090601f016020900481019282610e1a5760008555610e60565b82601f10610e3357805160ff1916838001178555610e60565b82800160010185558215610e60579182015b82811115610e60578251825591602001919060010190610e45565b50610e6c929150610e70565b5090565b5b80821115610e6c5760008155600101610e71565b600067ffffffffffffffff80841115610ea057610ea0611782565b604051601f8501601f19908116603f01168101908282118183101715610ec857610ec8611782565b81604052809350858152868686011115610ee157600080fd5b858560208301376000602087830101525050509392505050565b80356001600160a01b038116811461027857600080fd5b600060208284031215610f23578081fd5b6106a682610efb565b60008060408385031215610f3e578081fd5b610f4783610efb565b9150610f5560208401610efb565b90509250929050565b600080600060608486031215610f72578081fd5b610f7b84610efb565b9250610f8960208501610efb565b9150604084013590509250925092565b60008060008060808587031215610fae578081fd5b610fb785610efb565b9350610fc560208601610efb565b925060408501359150606085013567ffffffffffffffff811115610fe7578182fd5b8501601f81018713610ff7578182fd5b61100687823560208401610e85565b91505092959194509250565b60008060408385031215611024578182fd5b61102d83610efb565b915060208301358015158114611041578182fd5b809150509250929050565b6000806040838503121561105e578182fd5b61106783610efb565b9150602083013567ffffffffffffffff811115611082578182fd5b8301601f81018513611092578182fd5b6110a185823560208401610e85565b9150509250929050565b600080604083850312156110bd578182fd5b6110c683610efb565b946020939093013593505050565b6000602082840312156110e5578081fd5b81356106a681611798565b600060208284031215611101578081fd5b81516106a681611798565b60006020828403121561111d578081fd5b5035919050565b6000815180845261113c8160208601602086016116c0565b601f01601f19169290920160200192915050565b600083516111628184602088016116c0565b8351908301906111768183602088016116c0565b01949350505050565b6001600160a01b0391909116815260200190565b6001600160a01b03858116825284166020820152604081018390526080606082018190526000906111c690830184611124565b9695505050505050565b901515815260200190565b6000602082526106a66020830184611124565b60208082526032908201527f4552433732313a207472616e7366657220746f206e6f6e20455243373231526560408201527131b2b4bb32b91034b6b83632b6b2b73a32b960711b606082015260800190565b60208082526025908201527f4552433732313a207472616e736665722066726f6d20696e636f72726563742060408201526437bbb732b960d91b606082015260800190565b6020808252601c908201527f4552433732313a20746f6b656e20616c7265616479206d696e74656400000000604082015260600190565b60208082526024908201527f4552433732313a207472616e7366657220746f20746865207a65726f206164646040820152637265737360e01b606082015260800190565b60208082526019908201527f4552433732313a20617070726f766520746f2063616c6c657200000000000000604082015260600190565b6020808252602c908201527f4552433732313a206f70657261746f7220717565727920666f72206e6f6e657860408201526b34b9ba32b73a103a37b5b2b760a11b606082015260800190565b60208082526038908201527f4552433732313a20617070726f76652063616c6c6572206973206e6f74206f7760408201527f6e6572206e6f7220617070726f76656420666f7220616c6c0000000000000000606082015260800190565b6020808252602a908201527f4552433732313a2062616c616e636520717565727920666f7220746865207a65604082015269726f206164647265737360b01b606082015260800190565b60208082526029908201527f4552433732313a206f776e657220717565727920666f72206e6f6e657869737460408201526832b73a103a37b5b2b760b91b606082015260800190565b6020808252602e908201527f45524337323155524953746f726167653a2055524920736574206f66206e6f6e60408201526d32bc34b9ba32b73a103a37b5b2b760911b606082015260800190565b6020808252818101527f4552433732313a206d696e7420746f20746865207a65726f2061646472657373604082015260600190565b60208082526031908201527f45524337323155524953746f726167653a2055524920717565727920666f72206040820152703737b732bc34b9ba32b73a103a37b5b2b760791b606082015260800190565b6020808252602c908201527f4552433732313a20617070726f76656420717565727920666f72206e6f6e657860408201526b34b9ba32b73a103a37b5b2b760a11b606082015260800190565b6020808252602f908201527f4552433732314d657461646174613a2055524920717565727920666f72206e6f60408201526e3732bc34b9ba32b73a103a37b5b2b760891b606082015260800190565b60208082526021908201527f4552433732313a20617070726f76616c20746f2063757272656e74206f776e656040820152603960f91b606082015260800190565b60208082526031908201527f4552433732313a207472616e736665722063616c6c6572206973206e6f74206f6040820152701ddb995c881b9bdc88185c1c1c9bdd9959607a1b606082015260800190565b90815260200190565b6000821982111561169057611690611756565b500190565b6000826116a4576116a461176c565b500490565b6000828210156116bb576116bb611756565b500390565b60005b838110156116db5781810151838201526020016116c3565b838111156105235750506000910152565b60028104600182168061170057607f821691505b6020821081141561172157634e487b7160e01b600052602260045260246000fd5b50919050565b600060001982141561173b5761173b611756565b5060010190565b6000826117515761175161176c565b500690565b634e487b7160e01b600052601160045260246000fd5b634e487b7160e01b600052601260045260246000fd5b634e487b7160e01b600052604160045260246000fd5b6001600160e01b0319811681146117ae57600080fd5b5056fea2646970667358221220feed96c40f2ab4539da67b79e45c8197a41573ec52e3d6cfa339e6945deec02764736f6c63430008010033",
  "immutableReferences": {},
  "source": "//Contract based on [https://docs.openzeppelin.com/contracts/3.x/erc721](https://docs.openzeppelin.com/contracts/3.x/erc721)\r\n// SPDX-License-Identifier: MIT\r\npragma solidity ^0.8.0;\r\n\r\nimport \"@openzeppelin/contracts/token/ERC721/ERC721.sol\";\r\nimport \"@openzeppelin/contracts/utils/Counters.sol\";\r\nimport \"@openzeppelin/contracts/token/ERC721/extensions/ERC721URIStorage.sol\";\r\n\r\ncontract MemePedia is ERC721URIStorage {\r\n    using Counters for Counters.Counter;\r\n    Counters.Counter public _tokenIds;\r\n\r\n    constructor() ERC721(\"MemePedia\", \"MemePedia\") {}\r\n\r\n    function mintNFT(address recipient, string memory tokenURI)\r\n        public\r\n        returns (uint256)\r\n    {\r\n        _tokenIds.increment();\r\n\r\n        uint256 newItemId = _tokenIds.current();\r\n        _mint(recipient, newItemId);\r\n        _setTokenURI(newItemId, tokenURI);\r\n\r\n        return newItemId;\r\n    }\r\n}\r\n",
  "sourcePath": "C:\\Users\\Acer\\Desktop\\MemePedia\\notus-nextjs-main\\contracts\\MemePedia.sol",
  "compiler": {
    "name": "solc",
    "version": "0.8.1+commit.df193b15.Emscripten.clang"
  },
  "schemaVersion": "3.4.3",
  "updatedAt": "2022-04-09T21:42:41.639Z",
  "networkType": "ethereum",
  "devdoc": {
    "kind": "dev",
    "methods": {
      "approve(address,uint256)": {
        "details": "See {IERC721-approve}."
      },
      "balanceOf(address)": {
        "details": "See {IERC721-balanceOf}."
      },
      "getApproved(uint256)": {
        "details": "See {IERC721-getApproved}."
      },
      "isApprovedForAll(address,address)": {
        "details": "See {IERC721-isApprovedForAll}."
      },
      "name()": {
        "details": "See {IERC721Metadata-name}."
      },
      "ownerOf(uint256)": {
        "details": "See {IERC721-ownerOf}."
      },
      "safeTransferFrom(address,address,uint256)": {
        "details": "See {IERC721-safeTransferFrom}."
      },
      "safeTransferFrom(address,address,uint256,bytes)": {
        "details": "See {IERC721-safeTransferFrom}."
      },
      "setApprovalForAll(address,bool)": {
        "details": "See {IERC721-setApprovalForAll}."
      },
      "supportsInterface(bytes4)": {
        "details": "See {IERC165-supportsInterface}."
      },
      "symbol()": {
        "details": "See {IERC721Metadata-symbol}."
      },
      "tokenURI(uint256)": {
        "details": "See {IERC721Metadata-tokenURI}."
      },
      "transferFrom(address,address,uint256)": {
        "details": "See {IERC721-transferFrom}."
      }
    },
    "version": 1
  },
  "userdoc": {
    "kind": "user",
    "methods": {},
    "version": 1
  }
}